:020000040800F2
:10000000E0040020AD0100083F1100088D10000839
:100010003D110008B902000859170008000000004F
:100020000000000000000000000000003112000885
:10003000E902000800000000411100083312000826
:10004000C7010008C7010008C7010008C701000870
:10005000C7010008C7010008C7010008C701000860
:10006000C7010008C7010008C7010008C701000850
:10007000C7010008C7010008C7010008C701000840
:10008000C7010008C7010008C70100080000000000
:10009000000000000000000000000000C701000890
:1000A000C7010008C7010008C7010008C701000810
:1000B000C7010008C7010008C7010008C701000800
:1000C000C7010008C7010008C7010008C7010008F0
:1000D000C7010008C701000835170008000000002C
:1000E000C7010008C7010008C701000800000000A0
:1000F000000000000000000000000000C701000830
:1001000000000000C7010008C7010008C70100087F
:1001100000000000000000000000000000000000DF
:10012000C7010008C7010008C7010008C70100088F
:10013000C7010008000000000000000000000000EF
:10014000000000000000000000000000C7010008DF
:10015000C7010008C7010008C7010008C70100085F
:10016000C7010008C70100080000000000000000EF
:10017000000000000000000000000000000000007F
:1001800000000000EB02000800000000000000007A
:10019000C7010008C7010008DFF80CD000F07AF8AA
:1001A00000480047B9180008E004002006488047CE
:1001B00006480047FEE7FEE7FEE7FEE7FEE7FEE74C
:1001C000FEE7FEE7FEE7FEE7A91200089901000836
:1001D0002DE9F05F0546002092469B46884606467C
:1001E000814640241BE0284641464746224600F00F
:1001F00041F853465A46C01A914110D31146184649
:10020000224600F028F82D1A67EB01084F462246D7
:100210000120002100F01FF817EB00094E41201EBD
:10022000A4F10104DFDC484631462A464346BDE8D6
:10023000F09FD2B201E000F8012B491EFBD27047BB
:100240000022F6E710B513460A4604461946FFF7A2
:10025000F0FF204610BD202A04DB203A00FA02F10C
:10026000002070479140C2F1200320FA03F31943A4
:1002700090407047202A04DB203A21FA02F0002146
:10028000704721FA02F3D040C2F1200291400843A6
:1002900019467047064C074D06E0E06840F0010340
:1002A00094E8070098471034AC42F6D3FFF778FF84
:1002B000D0190008F0190008FEE710B50023044625
:1002C0001A460BE0A01801F0E3FAFF2804D0184406
:1002D00000EB80004006030E521CD2B28A42F1D3DA
:1002E0000A20B3FBF0F010BD7047704790F835104E
:1002F000022903D08021416501207047052180F843
:1003000035100068016821F001010160002070478C
:1003100070B5044600F0D8F80546601C02D00448C9
:100320000078044400F0D0F8401BA042FAD370BD1E
:100330002C0000202DE9F84FDFF860B100224FF0CB
:1003400001084FF0030A4FF00F090BF1040E00BF34
:100350000B6808FA02F42340A3426ED14D68022DC7
:1003600001D0122D0ED1D50800EB850CDCF8205001
:100370005607F70E09FA07F6B5430E69BE402E433D
:10038000CCF82060066855000F790AFA05FC07F0E2
:10039000030726EA0C06AF40374307604E68012E7C
:1003A00005D0022E03D0112E01D0122E0ED1866858
:1003B000CF6826EA0C06AF40374387604668A643FD
:1003C0000C79C4F30014944034434460C6688C68CC
:1003D00026EA0C06AC403443C4604C68E40056D5B1
:1003E0002F4C256845F480452560246822F00305DC
:1003F00004F4804400942B4C2E19D6F80848950735
:100400002F0F09FA07F5AC43274DA84201D100256B
:1004100015E0264DA84201D1012510E0244DA84247
:1004200001D102250BE0234DA84201D1032506E0AE
:10043000214DA84202D1042501E028E00725BD4056
:100440002543C6F80858DBF800405D464E689C43DB
:10045000F60300D51C432C60DEF8004075464E685C
:100460009C43B60300D51C432C600C4D08352C680A
:100470004E689C43F60200D51C432C60074D0C359A
:100480002C684E689C43B60200D51C432C60521C5D
:10049000102AFFF45DAFBDE8F88F0000003C01407A
:1004A0004438024000300140000002400004024095
:1004B00000080240000C0240001002400AB18161B5
:1004C00070470904FBE7000001488068704700009E
:1004D0002C00002002488168027811448160704736
:1004E0002C0000200B4810B5016841F40071016038
:1004F000016841F480610160016841F4807101602C
:10050000032000F077F8002000F006F800F024F84F
:10051000002010BD003C024070B50D4D04464FF464
:100520007A712878B1FBF0F00A490968B1FBF0F064
:1005300000F018FC48B9102C07D200222146501EAA
:1005400000F038F800206C6070BD012070BD000024
:100550002C000020280000200E4808B5016841F456
:1005600080410160006800F4804000900948001F4D
:10057000016841F0805101600068002200F0805065
:1005800000901146512000F015F8BDE808405120B8
:1005900000F002B844380240002809DB00F01F02D6
:1005A000012191404009800000F1E020C0F80011D5
:1005B00070470000F0B40E4B1B680C46C3F30223D7
:1005C000C3F10705042D00D90425191D072901D2FF
:1005D000002300E0DB1E012606FA05F1491E21403A
:1005E00099409E40761E16403143F0BC01F0C6B8DB
:1005F0000CED00E0064900F0070208684FF6FF0323
:10060000184040EA0220034A104308607047000087
:100610000CED00E00000FA052DE9F0470E4605005C
:1006200065D0DFF81481D8F80000F7B200F00F00B1
:10063000B04207D288F80070D8F8000000F00F0030
:10064000B04254D128683D4C810712D5400703D5EC
:10065000206840F4E05020602878000703D5206827
:1006600040F4604020602068A96820F0F000084352
:1006700020602878C0072DD03049686808390128E3
:1006800012D0022813D0032811D009688907002945
:100690002DDA216821F0030101432160FFF714FFE7
:1006A000814641F2883A0EE009688903EFE709685C
:1006B0008901ECE7FFF708FFA0EB0901514502D9DA
:1006C0000320BDE8F0872068696800F00C00B0EBFB
:1006D000810FEFD1D8F80010404601F00F01B14270
:1006E00007D90770006800F00F00B04201D0012068
:1006F000E7E72878400705D52068E96820F4E0504E
:10070000084320602878000706D52068296920F46E
:10071000604040EAC100206000F036F82168084AD5
:10072000C1F30311515CC840064908600020FFF77F
:10073000F3FE0020C5E70000003C024008380240FC
:10074000B819000828000020044805490068096815
:10075000044AC1F38221515CC84070472800002040
:1007600008380240C81900080448054900680968AB
:10077000044AC1F34231515CC84070472800002050
:1007800008380240C8190008154810B5006810F074
:100790000C02144813D01449042A0FD0082A0ED191
:1007A0000F4C241F2268236802F03F025B0207D52A
:1007B0002068C0F38810A0FB010106E0084610BDC8
:1007C0002168C1F38811A1FB00010023FFF700FDA0
:1007D0002168C1F30141491C4900B0FBF1F010BD93
:1007E000083802400024F40040787D012DE9F84FDC
:1007F000050076D02878DFF8F8B2BE4CC00749D0A3
:10080000DBF800105846C1F38101012908D00068C7
:10081000C0F3810002280AD1201D0068400206D5DD
:100820002068800336D568680028E2D032E0686826
:10083000B0F5803F10D0B0F5A02F206810D020F484
:1008400080302060206820F4802020606868A0B19B
:10085000FFF73AFE06460CE0206840F48030F4E7EB
:1008600040F480202060F7E7FFF72EFE801B64280D
:1008700073D820688003F7D50CE0FFF725FE064605
:1008800005E000BFFFF720FE801B6428F0D8206839
:100890008003F7D42878DFF8608280074FF00009E2
:1008A0003ED5DBF80010584611F00C0F09D0006857
:1008B000C0F3810002280BD18D48001F0068400260
:1008C00006D42068800715D5E868012809D111E011
:1008D000E868B8B10120C8F80000FFF7F5FD06464A
:1008E00005E002E1FFF7F0FD801B0228C0D8206878
:1008F0008007F7D52068296920F0F80040EAC10098
:1009000020600DE0C8F80090FFF7DEFD064604E029
:10091000FFF7DAFD801B02281FD820688007F7D474
:100920002878000722D5724E744869696C3671B117
:1009300001210160FFF7C8FD074604E0FFF7C4FD91
:10094000C01B022809D830688007F7D50EE0C0F830
:100950000090FFF7B9FD074605E083E0FFF7B4FD1F
:10096000C01B02287ED830688007F7D4287840075B
:1009700068D5DFF87CA100270AF1380ADAF8000010
:10098000C0000BD4DAF8001041F08051CAF8001012
:10099000DAF80000012700F080500090584E3068CF
:1009A000C00510D4306840F480703060FFF78CFDD3
:1009B000009005E0FFF788FD0099401A022851D801
:1009C0003068C005F6D54A4EA868683601280FD0B1
:1009D0000528306810D020F001003060306820F029
:1009E00004003060A868B8B1FFF76EFD00900FE01A
:1009F000306840F00100F4E740F004003060F7E7B1
:100A0000FFF762FD0099411A41F28830814264D8B3
:100A100030688007F4D50EE0FFF756FD009007E040
:100A2000FFF752FD0099411A41F28830814254D8B3
:100A300030688007F4D42FB1DAF8001021F080512B
:100A4000CAF80010A869C0B3DBF80010C1F3810137
:100A500002294AD00228484607D0C8F86000FFF7AC
:100A600033FD00E039E005463AE04746C8F860004B
:100A7000FFF72AFD064604E0FFF726FD801B02284B
:100A80002BD820688001F7D4D5E907010843A96A6B
:100A90001C4A490802EB01416A6A41EA8211084393
:100AA00095F82C1040EA01611148001F01600120F7
:100AB0003866FFF709FD054605E014E0FFF704FD81
:100AC000401B022809D820688001F7D50BE000BF41
:100AD000FFF7FAFC401B022802D90320BDE8F88F7B
:100AE00020688001F4D40020F8E70120F6E7000038
:100AF000083802400038024000004742800E47425A
:100B0000007000400000FFFF70B5040005D0002514
:100B1000A56294F8510010B106E0012070BD84F880
:100B20005050204600F030F8022084F85100206830
:100B3000016821F040010160D4E901010843D4E9D2
:100B400003121143084361690843218B01F40071CA
:100B50000843E1690843216A0843A16A0843216800
:100B60000860A069042101EA1040616A0843216815
:100B700048602068C16921F40061C1616565012098
:100B800084F85100002070BDF0B587B004461421F0
:100B90006846FFF755FB1949206888422CD1184850
:100BA0000024016841F480510160006800F4805025
:100BB000059013481438016841F001010160006894
:100BC000022500F0010005902020CDE9000501205C
:100BD000CDE902400B4F0526694604963846FFF7DB
:100BE000A9FBC020CDE900050320CDE902406946FC
:100BF00004963846FFF79EFB07B0F0BD0030014079
:100C000044380240000002402DE9F84F044690F8B5
:100C1000500000271D461646894601280DD04FF08A
:100C2000010B84F850B0FFF74FFC804694F8510058
:100C3000BA46012804D002278EE00220BDE8F88FD2
:100C4000B9F1000F7DD0002E7BD0032084F8510035
:100C5000C4F854A0C4F83090A686E686C4F838A03C
:100C6000A4F83CA0A4F83EA0C4F844A0C4F840A056
:100C7000A068B0F5004F04D12068016841F48041BC
:100C8000016020680168490603D4016841F0400111
:100C90000160E068B0F5006F606803D030B3012EEA
:100CA00024D040E008B1012E1CD1206B21680088BF
:100CB000C86006E020688168890709D5216B09882A
:100CC000C160206B801C2063E08E401EE08609E03E
:100CD000FFF7FAFBA0EB0800A84202D3681C01D082
:100CE00031E07DB3E08E0028E4D11FE0206B216865
:100CF0000078087306E020688168890709D5216BB0
:100D000009780173206B401C2063E08E401EE08652
:100D100009E0FFF7D9FBA0EB0800A84202D3681C4A
:100D200001D010E075B1E08E0028E4D1424629469A
:100D3000204600F007FA08B120206065A06820B1C5
:100D400007E008E0FFE7032706E02068C168806845
:100D50000090606D00B1012784F851B084F850A074
:100D600038466BE710B5401EB0F1807F01D30120FB
:100D700010BD4FF0E02460610F21601700F0FEFC11
:100D80000020A06107202061002010BD70470000F6
:100D900070B5026804461068D168536910F00F0FEF
:100DA00050D003F0010501F4907635435DD0C207C1
:100DB00005D0CA0503D5E26B42F00102E2634207A7
:100DC00005D5DA0703D0E26B42F00202E263820744
:100DD00005D5DA0703D0E26B42F00402E2630207B2
:100DE00005D5DA0703D0E26B42F00802E263E26B5A
:100DF000002A33D0800604D5880602D5204600F0AC
:100E000093FA20684069E16BC0F38010090700D4B1
:100E100028B3204600F07AFA2068416949061AD5BD
:100E2000416921F040014161606BA0B11B4901653E
:100E3000606BFFF75BFA002810D0606B016DBDE8B6
:100E400070400847830610D58B060ED52046BDE8B6
:100E5000704000F069BA2046FFF798FF70BD204649
:100E6000FFF794FF0020E06370BD030606D50B0674
:100E700004D52046BDE8704000F0F8BB4006F3D52D
:100E80004806F1D5D168204621F04001D1602021EB
:100E900084F8391000F0F9F870BD0000FD12000868
:100EA00070B5040004D094F83900002510B106E0B4
:100EB000012070BD84F83850204600F023F824202B
:100EC00084F839002068C16821F40051C1602046CF
:100ED00000F076FA2068016921F4904101612068F0
:100EE000416921F02A0141612068C16841F4005143
:100EF000C160E563202084F8390084F83A000020BE
:100F000070BD000010B586B0044614216846FFF796
:100F100097F917492068884228D11648016841F49A
:100F200000310160006800F400300590114810386D
:100F3000016841F0010101600068694600F00100AC
:100F400005900C20009002200190012002900320C7
:100F50000390072004900848FFF7ECF9002211469F
:100F60002620FFF727FB2620FFF716FB06B010BD53
:100F700000440040403802400000024090F83A30FF
:100F8000202B22D1F9B1F2B190F83830012B1CD0CE
:100F900081628285C2850021C163222280F83A20C5
:100FA00080F838100168CA6842F48072CA6001682B
:100FB0004A6942F001024A610068C16841F02001BB
:100FC000C1600020704701207047022070477047C1
:100FD0002DE9F843044690F839001F4616460D46A1
:100FE000202850D1A5B19EB194F8380001284AD0EC
:100FF000012084F838004FF00008C4F83C8021201C
:1010000084F83900FFF760FAA6848146E68426E07A
:101010000120BDE8F883E08C401EE084A0684B46C8
:10102000B0F5805F4FF000024FF08001204600973E
:1010300003D000F04CFBE8B90DE000F048FBC8B964
:1010400028882168C0F308004860206908B16D1C39
:1010500005E0AD1C03E0216815F8010B4860E08C49
:101060000028D8D14B46002240212046009700F0AE
:101070002EFB08B10320CCE7202084F8390084F847
:1010800038800020C5E70220C3E77047FEE7000074
:1010900070B586B014216846FFF7D2F816480024D0
:1010A000016841F004010160016801F0040105914B
:1010B000016841F0010101600068104E00F001007C
:1010C0004FF4C0650590224629463046FFF7F6F9F1
:1010D0004FF40050CDE90004694609480294FFF737
:1010E00029F901200095CDE90104694630460394B1
:1010F000FFF720F906B070BD303802400000024012
:10110000000802400C480B494FF4007201604FF494
:101110008271416000218160C1600161C0E90512F6
:101120003822C2618022C0E9082181620A21C1629D
:10113000FFF7EABC003001403C000020FEE77047AA
:101140007047000038B504461248134B0068B0FBE6
:10115000F3F04FF47A73584300906068B0F5827FE3
:101160000DD10B46009200228021204600F016F897
:1011700070B1606D40F020006065032038BD0098BC
:1011800030B1401E009020688068C0430006F6D54C
:10119000002038BD2800002000366E012DE9F04106
:1011A0001D4617460E460446DDF8188008E0681C08
:1011B00006D0FFF789F9A0EB0800A8420BD255B181
:1011C0002068806836EA000030D00020B842EED1B6
:1011D0000020BDE8F0812068416821F0E001416015
:1011E0006068B0F5827F0BD1A068B0F5004F02D0E7
:1011F000B0F5806F04D12068016821F040010160E2
:10120000A06AB0F5005F09D12068016821F400519F
:1012100001602068016841F400510160012084F8F8
:101220005100002084F850000320D2E70120CDE7D0
:101230007047FFF74FB9000010B592B030216846F3
:10124000FEF7FEFF14210CA8FEF7FAFF1448002455
:10125000016841F080510160006800F080501190F9
:101260001048016841F4404101600068069400F4B0
:101270004040119002200090012003901020049023
:101280006846FFF7B3FA0F20CDE90C040E940F94D3
:1012900000210CA81094FFF7BFF912B010BD000098
:1012A00040380240007000401048016841F470016D
:1012B00001600F48016841F0010101600C4A002102
:1012C0000832116002680B4B1A400260031D0A4A83
:1012D0001A60026822F48022026005480C30016026
:1012E00002495806803908607047000088ED00E028
:1012F00000380240FFFFF6FE1030002410B5806B6E
:101300000021C185C184FFF741FD10BD0168CA6895
:1013100022F49072CA6001684A6922F001024A61AF
:10132000202180F83A10704710B590F83A10222921
:1013300001D0022010BD8168B1F5805F11D0016934
:10134000002901681FD0496801F07F03816A4A1CA7
:1013500082620B70C18D491E0904090CC18518D029
:101360002BE00269816A002A0268526805D0D2B275
:101370000A80816A491C8162ECE7C2F308020A8094
:10138000816A891CF7E74A68816A4B1C83620A708C
:10139000E0E70168CA6822F02002CA600168CA68F2
:1013A00022F48072CA6001684A6922F001024A612F
:1013B000202180F83A10FFF70AFE002010BD00003F
:1013C0002DE9F041044600680169E26821F44051CA
:1013D000114301612169A068E26908436169114311
:1013E00022680843D16849F20C6399430143D160F4
:1013F00020684169A26921F4407111434161E269A9
:101400006425B2F5004F9748974922684FF032089B
:101410003FD08A4201D082427CD1FFF7A5F900EB90
:10142000C00101EB001061688900B0FBF1F6FFF725
:101430009BF900EBC00101EB001061688900B0FB73
:10144000F1F0B0FBF5F06FF01801484306EB8001B6
:1014500008EB0110B0FBF5F000F0F006FFF784F99F
:1014600000EBC00101EB001061688900B0FBF1F0F6
:10147000B0FBF5F006EB0016FFF776F900EBC001C4
:1014800001EB001061688900B0FBF1F7FFF76CF920
:10149000D2E08A4201D082423DD1FFF765F900EBEC
:1014A000C00101EB001061684900B0FBF1F0B0FB36
:1014B000F5F00601FFF758F900EBC00101EB001051
:1014C00061684900B0FBF1F7FFF74EF900EBC0018E
:1014D00001EB001061684900B0FBF1F0B0FBF5F0E2
:1014E0006FF01801484307EB800108EBC100B0FB27
:1014F000F5F000F0F80006EB4006FFF735F900EBD9
:10150000C00101EB001061684900B0FBF1F7FFF783
:101510002BF93CE055E0FFF717F900EBC00101EBB8
:10152000001061684900B0FBF1F0B0FBF5F0060176
:10153000FFF70AF900EBC00101EB001061684900F8
:10154000B0FBF1F7FFF700F900EBC00101EB001071
:1015500061684900B0FBF1F0B0FBF5F06FF01801E5
:10156000484307EB800108EBC100B0FBF5F000F049
:10157000F80006EB4006FFF7E7F800EBC00101EBCF
:10158000001061684900B0FBF1F7FFF7DDF800EBF0
:10159000C00101EB001061684900B0FBF1F0B0FB45
:1015A000F5F06FF01801484307EB800108EBC1002C
:1015B000B0FBF5F000F00700216830448860BDE81A
:1015C000F081FFF7C1F800EBC00101EB001061688A
:1015D0008900B0FBF1F6FFF7B7F800EBC00101EBB3
:1015E000001061688900B0FBF1F0B0FBF5F06FF01E
:1015F0001801484306EB800108EB0110B0FBF5F041
:1016000000F0F006FFF7A0F800EBC00101EB0010BE
:1016100061688900B0FBF1F0B0FBF5F006EB001655
:10162000FFF792F800EBC00101EB00106168890040
:10163000B0FBF1F7FFF788F800EBC00101EB0010F9
:1016400061688900B0FBF1F0B0FBF5F06FF01801B4
:10165000484307EB800108EB0110B0FBF5F000F008
:101660000F00A9E7001401400010014090F8391064
:10167000212901D0022070478168B1F5805F016A9D
:101680000BD04A1C0262026809785160C18C491E65
:101690000904090CC1840ED017E009880268C1F35F
:1016A0000801516001690029016A02D0491C0162E8
:1016B000ECE7891CFBE70168CA6822F08002CA6077
:1016C0000068C16841F04001C160002070472DE909
:1016D000F041984617460E460446069D1DE0681CDC
:1016E0001BD02DB1FEF7F0FEA0EB0800A84214D9E4
:1016F0002068C16821F4D071C1602068416921F07F
:1017000001014161202084F8390084F83A0000206A
:1017100084F838000320BDE8F0812068006836EACC
:10172000000004D00020B842D9D00020F3E7012007
:10173000F9E7000010B50648FFF72AFB0449092223
:1017400040310348FFF71AFC02490120087010BD20
:101750009400002000000020FEE700000FB4054BBD
:1017600010B503A9044A029800F027F810BC5DF8F0
:1017700014FB0000A1180008380000200907090E1A
:10178000002804DB00F1E02080F80014704700F02E
:101790000F0000F1E02080F8141D704702E008C837
:1017A000121F08C1002AFAD170477047002001E0DB
:1017B00001C1121F002AFBD170472DE9F84F99464D
:1017C000924688460546002706E025280AD051465D
:1017D0004A4690476D1C7F1C28780028F5D1384672
:1017E000BDE8F88F002315F8011F18462E2915D1E2
:1017F00015F8011F04232A290DD06FF02F02297834
:10180000A1F13004092C09D800EB800002EB400064
:1018100008446D1CF3E758F8040B6D1C2A78002A65
:10182000DDD0632A07D0732A0FD0104651464A46AE
:1018300090477F1C2AE018F8042B8DF80020002127
:101840008DF801106E46012103E058F8046B4FF04B
:10185000FF315A074FF0000401D409E0641C8442B0
:101860000BDA8C42FADB325D002AF7D105E0641C0A
:101870008C42FCDB305D0028F9D1274404E016F8E7
:10188000010B51464A469047641EF8D26D1CA3E7EF
:1018900000783038092800D9FF20C0B27047000016
:1018A00013B54FF0FF33012269460248FFF790FB62
:1018B00000981CBD94000020FEF714FEFFF7BCFC4E
:1018C000FFF7E6FBFFF71EFC1F4C1E4800252060BB
:1018D0004FF4E130C4E901050C20E560C4E904508F
:1018E000A5612046E561FFF7DBFA2068C16841F099
:1018F0002001C160154F04F140064FF47A78134976
:10190000114864232422491C5838FFF77DF910A0A0
:10191000FFF724FF0024315D10A0FFF71FFF641CB8
:10192000E4B2092CF7D30EA0FFF718FF4046FEF7EC
:10193000EFFC38780128E2D10348403000F012F87B
:101940003D70DCE7004400409400002000000020CF
:101950005265635F446174613A20000025630000B2
:101960000A00000030B505460321FEF7A6FCFF285B
:1019700000D3FF200F4C60766075607460736072F6
:101980000321E81CFEF799FCFF2800D3FE20A07677
:10199000A075A074A073A0720321A81DFEF78DFC92
:1019A000FF2800D3FE20E076E075E074E073E0727B
:1019B00030BD000001000020000000000000000019
:1019C00001020304060708090000000001020304E5
:1019D000F0190008000000203C0000009C170008DF
:1019E0002C1A00083C000020A4040000AC170008DA
:1019F00000000000000000000097FF00009700FFBB
:101A000000970000FF9700FFFF97FFFFFF00000017
:101A100000000000000000000024F40001000000AD
:0C1A2000100000000000000000000000AA
:040000050800019955
:00000001FF
